:1000000061C0000087C0000085C0000083C0000000
:1000100081C000007FC000007DC000007BC00000E8
:1000200079C0000077C0000075C0000073C00000F8
:1000300071C000000C9440226DC000006BC0000035
:100040000C94E52467C000000C94D1270C9403287D
:1000500061C000005FC000005DC000005BC0000028
:1000600059C0000057C00000000000080002010055
:100070000003040700000000000000000102040863
:100080001020408001020408102001020408102002
:10009000040404040404040402020202020203032E
:1000A00003030303000000002300260029000000D2
:1000B0000000250028002B0000000000240027007D
:1000C0002A00282811241FBECFEFD8E0DEBFCDBF05
:1000D00011E0A0E0B1E0E2EFF1E502C005900D9281
:1000E000A63CB107D9F724E0A6ECB1E001C01D920F
:1000F000AD3DB207E1F710E0C2E6D0E004C02197C1
:10010000FE010E94C828C136D107C9F70E943E23CC
:100110000C94F72875CFCF92DF92EF92FF920F9356
:100120001F93E82FF92F05C001501109210931094A
:1001300061F1908196239417B9F305C0015011091C
:100140002109310911F1908196239413F7CFC12C25
:10015000D12CE12CF12C0AC08FEFC81AD80AE80A7A
:10016000F80A0C151D052E053F0579F080818623C0
:10017000841791F36C2D7D2D8E2D9F2D1F910F9146
:10018000FF90EF90DF90CF90089560E070E080E006
:1001900090E01F910F91FF90EF90DF90CF90089526
:1001A000CF93C62F61E00E94EE2560E08C2FCF91A7
:1001B0000C94EE254F925F926F927F92AF92BF9216
:1001C000CF92DF92EF92FF920F931F93CF93DF9323
:1001D0005C01162FC42FD22F611104C061E0842F5F
:1001E0000E94EE2560E08C2F0E942A260E942F2577
:1001F0002B013C010E942F25641975098609970976
:100200006630710581059105A8F361E08C2F0E948D
:100210002A260E942F252B013C01C02ED12CF12C27
:10022000E12C0E942F256419750986099709C616C5
:10023000D706E806F906A8F760E08C2F0E942A2668
:10024000111104C060E08D2F0E94EE2520E432E4FD
:100250004FE050E061E08D2F0E947F26F501608322
:10026000718382839383DF91CF911F910F91FF90D0
:10027000EF90DF90CF90BF90AF907F906F905F90A6
:100280004F900895611102C00C94EE256130E1F3A6
:1002900062E0FACF662319F061E00C942A2660E050
:1002A000FCCF0E94572621E0019709F020E0822F21
:1002B000089590E080E008950F931F93009709F44C
:1002C00088C06115710509F484C000910401109182
:1002D000050120910601309107010E3F1F4F2F4F5E
:1002E0003F4F09F068C0DB014D915D916D917C91AC
:1002F0004093040150930501609306017093070138
:10030000409104015091050160910601709107012F
:10031000DC011296ED91FC9180819181A281B381E3
:1003200080932C0290932D02A0932E02B0932F0263
:1003300084819581A681B7818093280290932902B8
:10034000A0932A02B0932B0280859185A285B38564
:100350008093240290932502A0932602B093270253
:1003600084859585A685B785809320029093210288
:10037000A0932202B093230210921C0210921D023D
:1003800010921E0210921F0246D480E396E09093D2
:10039000C7018093C6019093C9018093C8012AD3F5
:1003A000009731F421E030E03093310220933002A5
:1003B0001F910F9108950091040110910501209162
:1003C000060130910701FB010083118322833383EF
:1003D00097CF8FEF9FEFECCF8F929F92AF92BF920C
:1003E000CF92DF92EF92FF921F93CF93DF934B0157
:1003F0005C011091330282E090E09093310280938F
:10040000300281149104A104B10441F480913302BB
:10041000811104C080913202C1E08111C0E0C12C81
:10042000D12C760180913302811106C08091320275
:10043000811102C0CC23D1F083E090E0909331028F
:1004400080933002CC2371F1CCE9DFEF111101C0B0
:100450006BD7CE01DF91CF911F91FF90EF90DF908E
:10046000CF90BF90AF909F908F9008956AE070E01A
:1004700080E090E00E94542580E1C80E87E2D81EFB
:10048000E11CF11C8FEF88169806A806B80631F01B
:10049000C1E08C149D04AE04BF0408F0C0E080E00D
:1004A000DDD2C0CFD0E0C0E0D1CFCF92DF92EF92CB
:1004B000FF920F931F93CF93DF938F3F910511F01E
:1004C00008F050C0209130023091310223303105C4
:1004D00039F020913002309131022130310531F470
:1004E00024E030E030933102209330026A017B0136
:1004F000EC0182309105A0F011E0AE01C701B60118
:1005000078D2AB01BC01CE011123F9F0DF91CF917C
:100510001F910F91FF90EF90DF90CF900C94B90B4B
:100520008C01000F111F0A531E4FD8018D919C9111
:10053000892B11F30E94C30B0297F1F6D801ED91BC
:10054000FC91CE010995182FD8CF0E94DB0B90E0CB
:1005500080E0DF91CF911F910F91FF90EF90DF909E
:10056000CF9008958FEF9FEFF4CF80E077C2CF93C5
:10057000DF9386E090E09093310280933002C7D2FF
:10058000EC01E6ECF1E084E0DF011D928A95E9F7E9
:1005900063D61092310210923002CE01DF91CF91DA
:1005A000089580913202089580911B02089560930E
:1005B000040170930501809306019093070190E078
:1005C00080E008950F931F93CF93DF9300D000D066
:1005D000CDB7DEB78091D40481111092D4040AE023
:1005E0002CE04BE061E0CE010196E4DD69817A8187
:1005F0008B819C810E94CC232EEA34ED43EB59E39E
:100600000E94312420E030E040E05FE30E9431248A
:100610006093D7047093D8048093D9049093DA043C
:1006200082E03FDE082F20910001309101014091CE
:100630000201509103016091D7047091D804809118
:10064000D9049091DA040E94C82387FF03C011E007
:10065000011101C010E0612F89E01CDE61E061271B
:100660008AE018DE8091F6019091F701A091F801DF
:10067000B091F9010196A11DB11D8093F6019093EF
:10068000F701A093F801B093F9010F900F900F902C
:100690000F90DF91CF911F910F910895CF92DF922C
:1006A000EF92FF921F93CF93DF93E0EEF1E080E0B3
:1006B00090E0A0E7B2E4828F938FA48FB58F8CE493
:1006C00094EEAFEFB1E784839583A683B7838CE87C
:1006D0009BE8ADEBB9ED80879187A287B3878DE664
:1006E00090EBA0EDB0E384879587A687B78785E573
:1006F00094EEAEE1B3E5808B918BA28BB38BA4ED2E
:10070000B1E0B383A283EAECF1E01196FC93EE939F
:100710008DE291E0918380839383828395838483A8
:10072000978386839187808784EF91E015969C93C9
:100730008E93149784EE91E013969C938E93129768
:1007400048E552E060E070E018964D935D936D933C
:100750007C931B97C8EBD4E0C12CD12C7601C394B9
:10076000C88ED98EEA8EFB8E6CE08BE019DD1C8E74
:100770001882C982DA82EB82FC8260E082E082DD4C
:1007800011E01D83188AC98ADA8AEB8AFC8A61E043
:1007900089E078DD1D8B1886C986DA86EB86FC86B3
:1007A00061E08AE06FDD1D87DF91CF911F91FF909F
:1007B000EF90DF90CF9008958091B804811103C02D
:1007C00081E08093B8048091C804811103C081E066
:1007D0008093C8048091C004811103C081E080939C
:1007E000C00408954F925F926F927F928F929F9272
:1007F000AF92BF92CF92DF92EF92FF920F931F932F
:10080000F89440900B0250900C0260900D02709092
:100810000E02C090FF01D0900002E0900102F09023
:100820000202452B09F0A6C09B01AC012419350931
:100830004609570929013A0100910702109108025F
:100840002091090230910A0248015901840C951C3B
:10085000A61CB71C80169106A206B306A0F4009150
:1008600003021091040220910502309106020F5FED
:100870001F4F2F4F3F4F009303021093040220930A
:100880000502309306028092070290920802A0921D
:100890000902B0920A020091030210910402209111
:1008A00005023091060280920F0290921002A092EF
:1008B0001102B092120200931302109314022093BB
:1008C00015023093160260930B0270930C02809312
:1008D0000D0290930E02A301920160EA76E881E096
:1008E00090E00E9483286C0D7D1D8E1D9F1D6093DE
:1008F000FF01709300028093010290930202009125
:1009000004011091050120910601309107010F3F6C
:100910001F4F2F4F3F4FF1F000910401109105013F
:1009200020910601309107010E3F1F4F2F4F3F4F7F
:1009300089F0C0900401D0900501E0900601F0908C
:10094000070121E08C149D04AE04BF0408F420E0EC
:1009500020931B0278941F910F91FF90EF90DF90EE
:10096000CF90BF90AF909F908F907F906F905F904F
:100970004F9008954B015C0184189508A608B708AC
:10098000A3019201261B370B480B590B6415750503
:1009900086059705E0F082169306A406B50640F496
:1009A00020E030E0A90181149104A104B104A1F474
:1009B00060EA76E881E090E00E948328A701960132
:1009C000261B370B480B590BCA01B901C3CF82163E
:1009D0009306A406B50660F7A501940160EA76E8DF
:1009E00081E090E00E9483286C0D7D1D8E1D9F1D6F
:1009F000B1CFF8CECF93DF9300D000D0CDB7DEB724
:100A00001C821B821A8219821092170210921802FD
:100A10001092190210921A02BE016F5F7F4FCE0131
:100A200003960E94EA2169817A818B819C810E94D0
:100A3000E21A009761F4BE016F5F7F4FCE0103960B
:100A40000E94F62169817A818B819C8128D50F9043
:100A50000F900F900F90DF91CF910895FF920F9319
:100A60001F93CF93DF93082F60E070E0CB010E94CB
:100A70005425FF24F3940E94CD19EC01892B89F0B1
:100A800010E0CE3F8FEFD80769F0002361F160E0FE
:100A900070E0CB010E94542581E090E0892B59F34E
:100AA00022C011E01FD5EC01892B21F0CE3F8FEF42
:100AB000D80759F711111EC011E0229609F410E071
:100AC0000E947E19EC01892B21F0CE3F8FEFD807D1
:100AD000E1F6111111C011E0CE3F8FEFD80709F4F4
:100AE00010E001110BC0CE01DF91CF911F910F914A
:100AF000FF90089511E0E4CF11E0F3CF60E070E0E3
:100B0000CB010E9454251F25812F90E0C7CFCF93A2
:100B1000DF9380911B02882321F060E070E0CB011D
:100B200048D631D6D0E0C0E0892B71F06AE070E0A1
:100B300080E090E00E94542581E090DF24D6219649
:100B4000C03727E1D20781F723D60E94361B1092C7
:100B500033021092320210922C0210922D02109247
:100B60002E0210922F021092280210922902109247
:100B70002A0210922B021092240210922502109247
:100B80002602109227021092200210922102109247
:100B900022021092230210921C0210921D02109247
:100BA0001E0210921F024EEF5FEF6FEF7FEF409338
:100BB00004015093050160930601709307011092A0
:100BC0001B02EFE0F2E028E0DF011D922A95E9F731
:100BD00010920B0210920C0210920D0210920E0253
:100BE00010920702109208021092090210920A0253
:100BF0001092030210920402109205021092060253
:100C00001092FF0110920002109201021092020253
:100C1000DF91CF91089510923F02109240021092FE
:100C200041021092420210923E028091470290913E
:100C3000480290933D0280933C0210923B02109236
:100C40003A02109236021092370210923802109235
:100C50003902109244021092430290E080E008951D
:100C6000CF92DF92EF92FF920F931F93CF938C015D
:100C7000892B09F055C0209147023091480280919C
:100C80003C0290913D02409147025091480250939E
:100C90003D0240933C022817390781F010923B0235
:100CA00010923A02109236021092370210923802D5
:100CB000109239021092440210924302809147022E
:100CC00090914802019761F580914302909144020E
:100CD000892B21F480910801811112C08091430277
:100CE000909144020197E1F480913602909137028D
:100CF000A0913802B09139020197A105B10581F4A4
:100D00001092360210923702109238021092390275
:100D10001092080182E090E0909344028093430295
:100D20008091470290914802019709F01CC180917F
:100D30005D0290915E028017910709F014C18091C5
:100D4000590290915A02A0915B02B0915C02009707
:100D500009F409C12091580221110DC04091590296
:100D600050915A0260915B0270915C02452B462BB8
:100D7000472B09F4F8C020914302309144022230FD
:100D8000310509F0F0C020913A022111ECC0FC01BC
:100D9000C080D180E280F38080913E02882309F4F4
:100DA000D3C080914A0290914B02892B09F4FDC077
:100DB00020914A0230914B0281E02230310509F046
:100DC00080E020914A0230914B02C1E02130310590
:100DD00049F020914A0230914B02C1E022303105A6
:100DE00009F0C0E0882309F456C0209154023091E4
:100DF00055024091560250915702C701B6010E9418
:100E00002D2487FD14C02091540230915502409149
:100E100056025091570260913F02709140028091BA
:100E20004102909142020E94C82387FD22C0209176
:100E30005402309155024091560250915702C70119
:100E4000B6010E942D24181634F5209154023091D9
:100E50005502409156025091570260913F027091A5
:100E6000400280914102909142020E94C823811168
:100E700012C080914C0290914D02A0914E02B0910F
:100E80004F02892B8A2B8B2B19F481E080933B0234
:100E900081E080933A02CC2309F456C02091540299
:100EA000309155024091560250915702C701B60148
:100EB0000E94C82387FF14C020915402309155022C
:100EC000409156025091570260913F02709140024A
:100ED00080914102909142020E942D2487FF22C0FE
:100EE0002091540230915502409156025091570280
:100EF000C701B6010E94C823811126C02091540267
:100F000030915502409156025091570260913F0234
:100F10007091400280914102909142020E942D24E2
:100F2000181694F480914C0290914D02A0914E02BB
:100F3000B0914F02892B8A2B8B2B19F481E080937F
:100F40003B0281E080933A0281E090913A02911154
:100F500080E080933E02C0923F02D0924002E09235
:100F60004102F0924202012B09F067C180914302D5
:100F700090914402892BD9F41092490210923A02BE
:100F800080910801882379F082E090E090934402F8
:100F90008093430210920801209147023091480249
:100FA00081E0232BE9F080E01BC081E00ACF1092A2
:100FB000080180914902882349F010923B02109267
:100FC00044021092430210924902EDCF80914702F1
:100FD00090914802892BE1F080913A0210923A02F6
:100FE00020914302309144022230310509F45EC061
:100FF00088F42115310509F448C02130310509F480
:10100000F3C010923B0210923A021092490238C08B
:1010100081E0E6CF2330310509F4B1C02430310539
:1010200081F74091360250913702609138027091F9
:101030003902411551056105710561F041505109B1
:101040006109710940933602509337026093380268
:101050007093390240913602509137026091380204
:1010600070913902452B462B472BD9F4209145022C
:10107000309146022130310509F046C010923B0202
:1010800010924402109243020CC080910801882300
:1010900041F082E090E090934402809343021092EA
:1010A00008011092340280913B02CEC08823C9F31C
:1010B00080914C0290914D02A0914E02B0914F024E
:1010C000181619061A061B060CF07DC080914702FF
:1010D00090914802019709F076C080914C0290915E
:1010E0004D02A0914E02B0914F0280933602909330
:1010F0003702A0933802B093390283E090E09093D6
:10110000440280934302CDCF40915002509151024E
:101110006091520270915302452B462B472BA9F048
:1011200010923B028091500290915102A091520284
:10113000B09153028093360290933702A093380205
:10114000B093390281E090E0DACF882399F0809162
:10115000090190910A01A0910B01B0910C018093BB
:10116000360290933702A0933802B093390284E09C
:1011700090E0C5CF10923B0282E090E0C0CF80911A
:10118000360290913702A0913802B091390200974F
:10119000A105B10559F00197A109B1098093360263
:1011A00090933702A0933802B093390280913602AF
:1011B00090913702A0913802B0913902892B8A2B85
:1011C0008B2B09F06ECF8091090190910A01A091BB
:1011D0000B01B0910C01892B8A2B8B2B09F44ECF7C
:1011E00081E080933B02B3CF4091360250913702A9
:1011F0006091380270913902411551056105710500
:1012000061F04150510961097109409336025093D0
:101210003702609338027093390240913602509140
:1012200037026091380270913902452B462B472BCB
:1012300009F037CF8111C7CF9FCF80913402882327
:1012400009F431CF80913502CF911F910F91FF901A
:10125000EF90DF90CF90089510923F0210924002DD
:10126000109241021092420210923E0210924402E9
:101270001092430210923D0210923C0210925E02C4
:1012800010925D0210923B0210923A0210923602C6
:1012900010923702109238021092390210923502E1
:1012A000109234021092590210925A0210925B026C
:1012B00010925C0210925802109254021092550241
:1012C000109256021092570288EE93E0A0E0B0E030
:1012D0008093090190930A01A0930B01B0930C0134
:1012E0001092500210925102109252021092530228
:1012F00010924C0210924D0210924E0210924F0228
:1013000010924B0210924A0281E0809308011092E1
:10131000490210924802109247021092460210921F
:10132000450290E080E00895809147029091480244
:10133000892BE1F480910801882351F080914902C2
:10134000811106C081E080933502809334020895B4
:1013500080914902882341F080910801811104C0E5
:101360001092350281E0F1CF10923402089582E0AC
:1013700090E0FA01918380838FEF9FEF0895CF93E0
:10138000DF93EA01009711F00E94531C1982188222
:1013900090E080E0DF91CF910895DB01009719F490
:1013A0008FEF8C9308952EEF2C934096803191050A
:1013B00008F036C0FC01E152F64F0C94C8280E0A22
:1013C0000C0A0A0A080A060A040A000A020AFE09A6
:1013D000FC09FA09F709F309EF09F509100A80E396
:1013E00011968C93089589E2FBCF82E2F9CF119692
:1013F0001C92089583E2F4CF81E2F2CF81E1F0CF35
:1014000087E2EECF8AE2ECCF80E1EACF84E2E8CF58
:1014100088E2E6CF86E2E4CF81E3E2CF83E3E0CF68
:1014200080E2DECF80916B0290916C0208959093E0
:101430006C0280936B02089580916A0208959091E6
:101440006A02892B80936A020895982F9095809163
:101450006A02892380936A0208958091690208953F
:10146000809167029091680208956115710559F0A5
:10147000FB0130E020E070E060E02417350719F050
:101480006115710511F0CB010895A081B181A817F4
:10149000B90709F4BF012F5F3F4F3696EECF809119
:1014A0006D0281111CC062D268D290936002809359
:1014B0005F020E9458140E946A1490936402809301
:1014C00063020E94E8180E94EF18909362028093D2
:1014D000610281E080936D0290E080E0089584EFE6
:1014E0009FEF08958F929F92AF92BF92CF92DF921B
:1014F000EF92FF920F931F93CF93DF93CDB7DEB799
:101500002A970FB6F894DEBF0FBECDBF1A86198694
:1015100018861F821E821D821C821B821A821982DB
:1015200080916D0207EF1FEF882309F49CC08E01A4
:101530000D5F1F4F9E012B5F3F4FAE01495F5F4F15
:10154000BE01675F7F4F90E080E00E94681A8C01C7
:10155000009721F00596029708F0DBC029853A85AF
:101560002115310509F402C1ED80FE804B815C81BB
:10157000B701640F751F8F8198858617970708F448
:10158000F5C0E20EF31ED7019C91903C09F07FC09C
:101590004230510508F47BC011968C9140916B024A
:1015A00050916C02452B09F49CC0913F08F071C02A
:1015B0002CE1290F2D3008F48BC02DE2290F2031AA
:1015C00008F489C0903C21F48150823008F483C033
:1015D00088E3890F8B3008F481C09DECC92E99E017
:1015E000D92EE7EBF9E06D817E81AE014F5F5F4F51
:1015F00089859A8509955C01C114D104A1F189807E
:101600009A808114910479F18B819C8188159905C8
:1016100008F487C010E000E04B815C8170E060E07E
:10162000C7010E94F02801151105E9F449815A818A
:1016300069857A858D819E81680F791FC501F601C4
:101640000995E980FA800D811E812F8138854985B1
:101650005A856FEF7FEF81E090E00E94041A8C01C1
:10166000892B09F056C0C8012A960FB6F894DEBF40
:101670000FBECDBFDF91CF911F910F91FF90EF90E3
:10168000DF90CF90BF90AF909F908F90089580E0B3
:1016900085CF30E020E0220F331FF901E15AFD4FE2
:1016A0000190F081E02D309709F497CF892F90E0D9
:1016B0000995009709F491CFDC011296ED91FC9108
:1016C00013971496CD90DC90309709F08CCF1FC003
:1016D00021E030E0E0CF22E030E0DDCF23E030E079
:1016E000DACFD12CC12CEFEBF9E09F3F09F07BCF93
:1016F000E0915F02F0916002309721F4C90104EF9C
:101700001FEF0CC08FEF90E009950097A9F604EF4A
:101710001FEF89859A85009709F4A5CF0E94531C75
:10172000A2CF0E94311B8C0189859A850E94531C8F
:1017300070E060E0C4010E94CA1A98878F830E94FB
:10174000011A9E838D836F8178856115710559F02B
:10175000C8010E94DF1D9A87898706EF1FEF892B3A
:1017600009F058CF59CF08EF1FEF56CF08EF1FEF02
:10177000D0CF20916D02222319F020E00C946F1439
:1017800087EF9FEF089580916B0290916C0208950E
:101790000E94F4180E944E18F5D0EFE5F2E088E0C0
:1017A000DF011D928A95E9F710926D0290E080E0CA
:1017B00008950C94AB1621E040E050E0BA010C947F
:1017C0006F1486E090E0FA019183808390E080E0DE
:1017D000089547E050E060E371E047CEDF92EF927A
:1017E000FF920F931F93CF93DF938A01EC01C60FF3
:1017F000D71FE0907102F0907202D9800E94191BED
:10180000D816190678F082E090E0F8019183808381
:101810008EEF9FEFDF91CF911F910F91FF90EF908F
:10182000DF900895EF2841F482E090E0F801918381
:10183000808384EF9FEFEECF89818093700290E0E8
:101840000196F8019183808390E080E0E3CFCF930D
:10185000DF93EA010E945C17882321F00E94261B77
:101860000E945D1782E090E0998388838BEF9FEF61
:10187000DF91CF910895CF93DF93EB0186E0FB01D9
:1018800011928A95E9F78FEF8883D6DD8983E5DDAC
:101890008A83E6DD9D838C83DF91CF910895CF937A
:1018A000DF93EA010E945F17811109C082E090E096
:1018B0009983888385EF9FEFDF91CF91089590E022
:1018C00080E0B5DD81E090E09983888390E080E05E
:1018D000F3CF0F931F93CF93DF93EA018C01060F91
:1018E000171F0E945F1781110BC082E090E099835F
:1018F000888385EF9FEFDF91CF911F910F9108951E
:10190000F8018181823038F082E090E09983888309
:101910008EEF9FEFF0CF81E090E089DD88E090E0EE
:101920009983888390E080E0E6CFCF93DF930097A0
:10193000D1F4EB01FB01329686E0DF011D928A951E
:10194000E9F78FEF888385E089831A820E94191B4B
:101950008B830E94181B9D838C8381E08E838F83F1
:10196000DF91CF910895DF91CF9117CD89EE9BE064
:1019700090936F0280936E02089580916E02909111
:101980006F02089510926F0210926E020895809176
:101990007102909172020895411105C0611571059F
:1019A0008105910561F060937102709372028093DA
:1019B0007302909374024093750281E0089580E071
:1019C0000895FF920F931F93CF93DF938A01EC0149
:1019D000C60FD71FF9800E94191BF816190668F068
:1019E00082E090E0F801918380838EEF9FEFDF919A
:1019F000CF911F910F91FF9008956C817D818E8111
:101A00009F814B81C9DF811108C082E090E0F8011D
:101A10009183808384EF9FEFEACF89818093700266
:101A200090E00196F8019183808390E080E0DFCF21
:101A3000CF93DF93EA01FC01E60FF71F6481758104
:101A4000868197814381A8DF811109C082E090E0FF
:101A50009983888384EF9FEFDF91CF91089581E090
:101A600090E09983888390E080E0F6CFE1E7F2E0B0
:101A70004081518162817381480F511D611D711D2B
:101A800040835183628373830895CF93C091700222
:101A90004C2F50E0609171027091720201960E9489
:101AA000E7288C2FE3DF10927002CF910895009702
:101AB00099F480917102909172022FEFFB012083C3
:101AC000892B59F02091700230E02F5F3F4F24178F
:101AD000350719F4CB01D9CF60CC0895009799F45C
:101AE00080917102909172022FEFFB012083892B6C
:101AF00059F02091700230E02F5F3F4F24173507D7
:101B000019F4CB01C2CF49CC089523E1AC01249F45
:101B1000C001259F900D1124E0917A02F0917B0283
:101B2000E80FF91F238134812250310981E02230EE
:101B3000310508F080E008950F931F93CF93DF9352
:101B400000917C0210917D02D0E0C0E080E00C1793
:101B50001D0749F491E0811190E0892FDF91CF9129
:101B60001F910F9108958111F5CFCE01CEDF2196FF
:101B7000EECFA0917A02B0917B02109729F12091CB
:101B80007C0230917D0282179307F0F453E1589F55
:101B90009001599F300D1124A20FB31FED91FC91BC
:101BA0001197309789F012968C91681768F48DE040
:101BB000689FE00DF11D112480819181892B21F016
:101BC00081E09281491708F080E008959C0143E18B
:101BD000429FC001439F900D1124E0917A02F09141
:101BE0007B02E80FF91F8385823091F481E090E059
:101BF0006581768140910D0150910E016417750742
:101C000011F490E080E0892B19F081E0232B09F09A
:101C100080E00895FC01A081B1818DE0689FA00D56
:101C2000B11D112413964D915C9185859685489F31
:101C30009001499F300D589F300D1124C901019624
:101C4000611103C0478144FD04960895EF92FF920D
:101C50000F931F93CF93DF93EA01FC01E60FF71F69
:101C600002811381E480F5804F2D6E2DC80181DF44
:101C700081110DC082E090E0998388838EEF9FEF01
:101C8000DF91CF911F910F91FF90EF900895C801C0
:101C90003CDF882339F082E090E09983888388EFE5
:101CA0009FEFEECF1093140100931301E092150102
:101CB000F092160181E090E09983888390E080E0C3
:101CC000DFCFCF92DF92EF92FF920F931F93CF93CC
:101CD000DF937A01EC01C60FD71FC0901301D0909B
:101CE00014010091150110911601412F602FC601BA
:101CF00040DF811110C082E090E0F7019183808382
:101D00008AEF9FEFDF91CF911F910F91FF90EF909E
:101D1000DF90CF900895C601F8DE882341F082E07D
:101D200090E0F7019183808388EF9FEFEBCF4C81A8
:101D30005D816E817F819A8189818F3F41F082E050
:101D400090E0F701918380838EEF9FEFDBCFE3E19B
:101D5000EC9D9001ED9D300D1124E0917A02F091FF
:101D60007B02E20FF31F0190F081E02D2DE0029F36
:101D7000E00DF11D11240190F081E02D27E0129F6C
:101D8000E00DF11D1124808391838B818283438335
:101D90005483658376831F5F1093160181E090E082
:101DA000F7019183808390E080E0ACCFEF92FF92C7
:101DB0000F931F93CF93DF937A018C01060F171FA8
:101DC000C0917A02D0917B02209781F021E030E02F
:101DD000F8018281938140917C0250917D028417A9
:101DE000950710F030E020E0232B71F482E090E0C2
:101DF000F701918380838EEF9FEFDF91CF911F9149
:101E00000F91FF90EF90089543E1489F9001499F03
:101E1000300D1124C20FD31F78DE882341F082E0F9
:101E200090E0F7019183808388EF9FEFE6CFF80180
:101E30002481358120383105C8F687818111D6CFBC
:101E40004181842F90E08F7E009741F082E090E006
:101E5000F7019183808386EF9FEFCFCF4F833E833F
:101E60002D83268128871986223010F421E02887C7
:101E700021E030E0F70131832083BFCF88E090E09C
:101E8000FA019183808390E080E00895FB018FEF59
:101E9000808381E181838FEF9FEF9383828380E84A
:101EA00090E095838483168217820895FB018FEF5B
:101EB000808391E0918382839383848384E3858309
:101EC00081E090E097838683089582E090E0FA01B4
:101ED0009183808380EF9FEF0895DF92EF92FF92CE
:101EE0000F931F93CF93DF93EA01FC01E60FF71FD7
:101EF0008181813071F082E090E0998388838FEF57
:101F00009FEFDF91CF911F910F91FF90EF90DF90A6
:101F1000089582819381D4802581E680F7800091A5
:101F20007A0210917B020115110539F482E090E0EC
:101F3000998388838CEF9FEFE4CF40917C0250918E
:101F40007D028417950738F082E090E099838883BA
:101F50008EEF9FEFD6CF892B39F082E090E0998306
:101F6000888386EF9FEFCDCF8D2D8D7FB1F7213008
:101F7000A1F781E0D11006C091E0E916F10431F03B
:101F800080E004C0E2E0EE16F104D0F3882329F3E8
:101F900090E080E0BADD882339F082E090E0998318
:101FA000888388EF9FEFADCFF801D38681E08487E7
:101FB000F686E586108A178681E090E0998388830B
:101FC00090E080E09ECF4DE050E06AE571E04DCAC0
:101FD0008F929F92BF92CF92DF92EF92FF920F93D8
:101FE0001F93CF93DF93EA01FC01E60FF71F828175
:101FF00093810481B580E0917A02F0917B02309761
:1020000091F482E090E0998388838CEF9FEFDF91D9
:10201000CF911F910F91FF90EF90DF90CF90BF90E5
:102020009F908F90089520917C0230917D028217BD
:10203000930738F082E090E0998388838EEF9FEFDA
:10204000E6CF23E1289F6001299FD00C1124EC0DDD
:10205000FD1DE080F180E114F10499F282810817FE
:1020600048F78DE0089F80011124E00EF11EF70172
:1020700080819181892B29F6BB20E1F2F7E0BF9E98
:1020800040011124C4010E941A1CF701918380832E
:10209000E0917A02F0917B02EC0DFD1D0190F08140
:1020A000E02DE00FF11F80819181009739F482E0EB
:1020B00090E0998388838DEF9FEFA9CFA40170E012
:1020C00060E00E94F02880917A0290917B02C80E15
:1020D000D91EF60180819181080F191FF801B28283
:1020E00081E090E09983888390E080E090CFAF9288
:1020F000BF92CF92DF92FF920F931F93CF93DF9304
:10210000EA01FC01E60FF71F82819381F4800091C0
:102110007A0210917B020115110581F482E090E0B2
:10212000998388838CEF9FEFDF91CF911F910F915F
:10213000FF90DF90CF90BF90AF90089520917C02E8
:1021400030917D028217930738F082E090E0998306
:1021500088838EEF9FEFE8CF2FEF2F0D2C3FA8F74E
:1021600023E1289F6001299FD00C11240C0D1D1D17
:10217000F80180819181892B89F6FDE0FF9E500155
:102180001124C5010E941A1CF80191838083E091FB
:102190007A02F0917B02EC0DFD1D80819181009708
:1021A00039F482E090E0998388838DEF9FEFBCCF74
:1021B000A50170E060E00E94F028E0917A02F091C1
:1021C0007B02EC0DFD1DF28281E090E09983888313
:1021D00090E080E0A9CFCF92DF92EF92FF920F9331
:1021E0001F93CF93DF93860F971FFC01028113810A
:1021F00080917A0290917B02892B81F082E090E0BD
:10220000FA01918380838CEF9FEFDF91CF911F9133
:102210000F91FF90EF90DF90CF900895C801B0E04C
:10222000A0E00197A109B1098F3F9F4FA105B1051A
:1022300040F082E090E0FA01918380838EEF9FEF7F
:10224000E4CF7A0183E1809F6001819FD00C11244B
:10225000C6010E941A1CEC01009741F482E090E054
:10226000F701918380838DEF9FEFCFCFA60170E0C0
:1022700060E00E94F028D0937B02C0937A02109312
:102280007D0200937C0290E080E02FEF3FEF41E081
:1022900061E070E08017910741F481E090E0F70180
:1022A0009183808390E080E0B0CF3A8B298B1B86AE
:1022B0004C877E876D87188A1F8601966396EACFC2
:1022C000EF92FF921F93CF93DF93EC0110E0F12C7C
:1022D000E12C6A811617A8F070E0660F771FAE0137
:1022E0004F5E5F4FC7010E947F1C009721F02FEFC8
:1022F0003FEF3A8B298BDF91CF911F91FF90EF90A9
:102300000895612FCE0186DC61E070E00E94CA1A58
:10231000E816F90608F47C011F5FDBCFF8942091E2
:1023200078023091790281E02115310509F080E0D1
:10233000232B09F0789408952F923F924F925F9249
:102340006F927F928F929F92AF92BF92CF92DF92C5
:10235000EF92FF920F931F93CF93DF933C01660E92
:10236000771EF301828193814C01B12CA12CC09185
:102370007A02D0917B02209769F021E030E06091F1
:102380007C0270917D028617970710F030E020E004
:10239000232BD1F482E090E0FA01918380838EEFC9
:1023A0009FEFDF91CF911F910F91FF90EF90DF9002
:1023B000CF90BF90AF909F908F907F906F905F90E5
:1023C0004F903F902F90089580921701909218019E
:1023D000A0921901B0921A0163E1689F9001699F70
:1023E000300D1124C20FD31FF3018181833040F0DF
:1023F00082E090E0FA019183808386EF9FEFD1CF56
:102400002A012B813C81232BF1F4288139819F8182
:1024100091FF2EC0232B09F46FC020917F029A8177
:10242000422F490F5527551FBA0141E050E061384E
:10243000710514F050E040E0452B09F45DC02A8797
:10244000920F90937F028150823008F481C066DF42
:10245000882309F4D8C0F3018181813009F48DC04B
:1024600008F47BC0823009F4C6C090E080E0ADC0C3
:10247000232B09F441C020917E029A81E22FE90FBB
:10248000FF27FF1F41E050E0ED3FF10514F050E061
:1024900040E0452B89F12A87920F90937E02D3CF9B
:1024A000A081B181A20FB31F11966C91060F111D6F
:1024B0000196295F3F4F8417950794F38D859E857C
:1024C000089F1001099F300C189F300C1124C11473
:1024D000D104D1F48F8184FF17C00E94181BF5E04E
:1024E0002F0E311C21E08215930508F420E0A7018E
:1024F000435F5F4F21110EC082E090E0F2019183B3
:10250000808387EF9FEF4DCF0E94181B2FEF221A79
:10251000320AE8CF88819981E80EF91EF701148309
:102520000383FFEFCF1ADF0A7A018A818C151D041D
:1025300009F00CF48CCFE881F981EE0DFF1D42818A
:1025400050E030E020E010E000E090E080E0B3CF29
:10255000F12CE12CD12CC12CE8CF81E090E09C83C0
:102560008B83EADA882309F480CF81E090E00E942F
:10257000170A80E40E94250A78CF89899A890196F2
:1025800061F083E090E09C838B8382E090E00E9486
:10259000170A80E40E941F0A68CF8D819E812091D6
:1025A0000D0130910E0182179307D1F46091110152
:1025B00070911201AE014F5E5F4F80910F019091BB
:1025C00010010E949E1D0097E1F2789422E030E015
:1025D000F20131832083892B99F08DEF9FEFE1CEBB
:1025E00089288A288B2869F6892B59F6CE0168DE5E
:1025F000188A1F86E8CF82E090E09C838B8335CFDA
:1026000090E080E0CECE82E090E0F2019183808382
:1026100085EF9FEFC6CE8F929F92AF92BF92CF92DF
:10262000DF92EF92FF920F931F93CF93DF93EA0114
:102630008C01060F171FF8018181833098F082E02A
:1026400090E09983888386EF9FEFDF91CF911F9170
:102650000F91FF90EF90DF90CF90BF90AF909F9041
:102660008F90089580917A0290917B02892B61F07E
:1026700081E090E020917C0230917D02232B11F4C7
:1026800090E080E0892B39F482E090E099838883A0
:102690008EEF9FEFDACF42DE882309F4DFC0F80126
:1026A0008181813009F495C0E8F0823099F420915D
:1026B0007C0230917D02E0917A02F0917B0290E001
:1026C00080E041E050E02817390709F0BDC034DA56
:1026D000811117C0789481E090E09983888390E01D
:1026E00080E0B3CF20917C0230917D02E0917A02AC
:1026F000F0917B0290E080E041E050E0281739073C
:1027000041F481E090E00E94170A80E40E94250ACB
:10271000E1CF63817481672B11F054834383019669
:102720007396ECCFE0917A02F0917B02E00FF11FFB
:102730002381348122303105D9F4218932892F3F18
:102740003F4FB1F42581368140910D0150910E012A
:102750002417350761F5AF014F5E5F4F609111019E
:102760007091120180910F01909110010E949E1DA5
:10277000EFEFCE1ADE0AEE0AFE0A0D5E1F4F409101
:102780007C0250917D0270E060E0C416D506E6063A
:10279000F7063CF5009731F27894892B09F49BCF2A
:1027A00082E090E0998388838DEF9FEF4ECFC11434
:1027B000D104E104F104E1F6232BD1F6CF0180DD51
:1027C000E0917A02F0917B02E00FF11F108A1786E8
:1027D000CFCF10E000E090E080E0C12CD12C76015A
:1027E000CECF0097C9F610E000E0812C912C540167
:1027F00083E0E82EF12C1AC0E0917A02F0917B027E
:10280000E00FF11F83819481029749F4F482E382FF
:1028100082E090E00E94170A80E40E941F0AFFEF06
:102820008F1A9F0AAF0ABF0A0D5E1F4F80917C026C
:1028300090917D02B0E0A0E088169906AA06BB063A
:10284000DCF290E080E0A8CF638174816230710592
:1028500011F4548343830196739635CF82E090E060
:102860009983888385EF9FEFF0CE0097B9F48FEFBF
:10287000FB018083209117013091180143E1429FB1
:10288000C001439F900D1124E0917A02F0917B02E8
:10289000E80FF91F8285FB01818308950C94CD090F
:1028A00088E090E0FA019183808390E080E00895D1
:1028B0001092790210927802EAE7F2E086E0DF01F6
:1028C0001D928A95E9F783EE9FE0909377028093BB
:1028D00076020895809176029091770208952F9262
:1028E0003F924F925F926F927F928F929F92AF92A0
:1028F000BF92CF92DF92EF92FF920F931F93CF93ED
:10290000DF93CDB7DEB72F970FB6F894DEBF0FBEBB
:10291000CDBFF894E0917802F09179023196F0936E
:102920007902E0937802789440907A0250907B028A
:102930004114510409F40CC2E0917C02F0917D0233
:10294000EF2B09F405C22D8749875A876B877C874F
:1029500098878F831201B12CA12C10E000E08091A8
:102960007C0290917D02A816B90618F40115110594
:1029700029F1F894809178029091790201979093CF
:102980007902809378027894C8012F960FB6F89454
:10299000DEBF0FBECDBFDF91CF911F910F91FF9092
:1029A000EF90DF90CF90BF90AF909F908F907F90EF
:1029B0006F905F904F903F902F9008957101E418B1
:1029C000F508D10117968C91179781FD54C0139685
:1029D0008D919C911497039709F04DC015968D9198
:1029E0009C91EF81F8858E179F0709F044C0B501CF
:1029F00090E080E07ED48A8320917A0230917B023D
:102A00003D832C833D85332309F44CC04C815D818B
:102A1000452B09F49AC180917C0290917D02A81601
:102A2000B90608F092C1C501D1D88823E9F06C81BC
:102A30007D816E0D7F1D7D836C83DB011F968D91E3
:102A40009C91892B89F0D12CC12CF12CE12CAC81EB
:102A5000BD8112968C9112978E151F0409F094F483
:102A600050961C921E921F972A81222321F0B501B5
:102A700090E080E040D43FEFA31AB30A43E1240E74
:102A8000311C6DCFAC81BD81ED91FC91EC0DFD1D34
:102A90008581968108D7BFEFEB1AFB0AEDE0CE0ED9
:102AA000D11CD5CFEC81FD81309709F44EC18091C6
:102AB0007C0290917D02A816B90608F046C1EE0D81
:102AC000FF1DFF87EE87C50181D88B83882339F1ED
:102AD000AE85BF851F968D919C915097019621E000
:102AE0001D964D915C918417950709F020E02E8387
:102AF0001982712C10E000E0AE85BF8512968C9192
:102B0000781608F45DC0EE85FF858785908901966B
:102B1000658576850E949228908B8787A5CFB1E046
:102B2000BE83E6CF992493946BC084D6F601968336
:102B3000858382C0D601ED90FC90B7E06B9EE00CDF
:102B4000F11C1124F7016381748180818F3F61F151
:102B500021E030E002C0220F331F8A95E2F7C9015D
:102B6000092E000CAA0BBB0BFB0140815181628135
:102B7000738184239523A623B72321E0892B8A2BF5
:102B80008B2B09F420E0D4012C93D70111968C9162
:102B9000F60123853485820F932F911D880E991E8F
:102BA0001486138663949BC0418150E0C4010E9447
:102BB000E728EBCF998206EF1FEFC5C01982C3C08B
:102BC000F981F111A0CFEDE07E9E70011124AE8558
:102BD000BF85CD90DC90CE0CDF1C13D49D838C83FD
:102BE000BB81BB2309F49ECF81E0EE85FF8527855D
:102BF0003089232B09F080E0982E882309F458C0EF
:102C0000672D8E859F8506D8D60118969C938E9346
:102C1000179761E070E0BED4EE85FF852189328987
:102C20002F3F320709F481CFBC01C901C8D7D601B3
:102C300016969C938E931597D60115968D919C911F
:102C40001697009709F4B6CFEC81FD818E0F9F1F78
:102C50001A969C938E931997AE85BF85ED91FC9142
:102C60001197EE0EFF1EF70121853285148613861B
:102C70001A968C91870DD9018D93711016C0EE852F
:102C8000FF85878184FF11C049855A856B857C85C6
:102C9000F9014183528363837483F70183859485AB
:102CA0000496A80FB91F14861386F701B287A1876F
:102CB000D60115968D919C911697892B09F443C0E6
:102CC000EE85FF852581368180910D0190910E0161
:102CD0002817390779F019968D909C90612CD601B0
:102CE00012968C911297681608F424CF1A969C922B
:102CF0008E921997BE81BB2309F460CF61E070E02A
:102D0000F6018781908546D4D6011796ED90FC9008
:102D1000189715964D915C91E1E0F0E0BA81BB23E4
:102D200011F0F0E0E0E00C811D819C01B5018827E5
:102D300099278E1B9F0B68D38C01892B21F0F601FC
:102D400085819681B0D57394D7CE0FEF1FEF8CCECF
:102D500010E000E00ECE2F923F924F925F926F9262
:102D60007F928F929F92AF92BF92CF92DF92EF921B
:102D7000FF920F931F93CF93DF9380917A029091EC
:102D80007B0210E000E0892BA9F0C8DA0AEF1FEF00
:102D9000882381F020907C0230907D02C0917A02DD
:102DA000D0917B02D12CC12C10E000E02C143D040A
:102DB000A9F47894C801DF91CF911F910F91FF90F2
:102DC000EF90DF90CF90BF90AF909F908F907F90CB
:102DD0006F905F904F903F902F900895C6010E9492
:102DE000E60D882309F18B819C810397E9F48F8597
:102DF0009889892BC9F0B60190E080E07AD221E071
:102E000030E0882311F030E020E044245524421AB9
:102E1000530AB12CA12C912C812C8A81881519047C
:102E200009F038F4188A1F864FEFC41AD40A639643
:102E3000BDCFE881F981EA0DFB1D85819681892B43
:102E4000A1F161E070E087819085A4D33C01D9D2E3
:102E50008C01E881F981EA0DFB1D81859285258130
:102E60003681200F311FAC01421B530B9A01478161
:102E70005085421B530B70E060E00E94F028E8810F
:102E8000F981EA0DFB1DE780F084458156819301AD
:102E9000B601C201B9D28C01892B39F0E881F981E0
:102EA000EA0DFB1D85819681FED45FEF851A950A98
:102EB0008DE0A80EB11CB1CF31CA789408952F923D
:102EC0003F924F925F926F927F929F92AF92BF928A
:102ED000CF92DF92EF92FF920F931F93CF93DF93E6
:102EE00000D000D000D0CDB7DEB700917A021091AB
:102EF0007B02992493940115110509F43EC0A0901A
:102F00007C02B0907D020ADA982E8823B1F11092EB
:102F10007B0210927A0210927D0210927C02109233
:102F20007E0210927F028FEF9FEFDC0180931701EA
:102F300090931801A0931901B0931A0178947AD351
:102F40001E830D83C12CD12C7601C501B0E0A0E019
:102F500089839A83AB83BC8322242A94322C89816F
:102F60009A81AB81BC81C816D906EA06FB06F4F04B
:102F7000C80199D480E40E94250A892D26960FB6AF
:102F8000F894DEBF0FBECDBFDF91CF911F910F919F
:102F9000FF90EF90DF90CF90BF90AF909F907F9089
:102FA0006F905F904F903F902F900895AD81BE81BC
:102FB00015968D919C91169720910D0130910E01DF
:102FC00082179307D1F451968D919C91E6D5ED81AE
:102FD000FE8180819181B12CA12C412C512C320198
:102FE000892B89F5BFEFCB1ADB0AEB0AFB0AED81CF
:102FF000FE817396FE83ED83B2CFC114D104E10448
:10300000F10429F7892B19F7ED81FE8181899289D5
:103010008F3F980709F021D5AD81BE8152963C9231
:103020002E925197D4CF8A0D9B1DDC018D919C91DE
:10303000009709F038D4BFEF4B1A5B0A6B0A7B0A82
:10304000EDE0AE0EB11CAD81BE818D919C911197CA
:1030500012964C9150E070E060E04416550666060A
:1030600077060CF320D4BECFCF93DF93EA0127DF9E
:10307000811109C082E090E09983888385EF9FEFFA
:10308000DF91CF91089581E090E00E94170A81E0DE
:1030900090E09983888390E080E0F2CF10DF109277
:1030A000770210927602089542E050E068EA71E0FB
:1030B0000C94350AFF920F931F93CF93DF938A01ED
:1030C000EC01C60FD71FF980B4D20897F81619067D
:1030D00071F068F082E090E0F801918380838EEFD8
:1030E0009FEFDF91CF911F910F91FF9008956C8119
:1030F0007D818E819F814B810E94CC0C811108C003
:1031000082E090E0F8019183808384EF9FEFE9CF24
:10311000F9800E94C70C4F2D50E0BE01685F7F4FC1
:103120000E94E72889810E94360D81E090E0F80135
:103130009183808390E080E0D4CFDF92EF92FF9282
:103140000F931F93CF93DF938A01EC01C60FD71F14
:103150000E94C70C7C01D9806CD2DD2059F0029707
:1031600021E030E0D816190619F010F030E020E028
:10317000232B79F482E090E0F801918380838EEF35
:103180009FEFDF91CF911F910F91FF90EF90DF9014
:103190000895EF2841F482E090E0F8019183808364
:1031A00084EF9FEFEECFF9800E94C70C4F2D50E0C7
:1031B000BE016E5F7F4F0E94E72889810E94360D15
:1031C00081E090E0F8019183808390E080E0D9CFA6
:1031D00084E598E190938102809380020895809124
:1031E00080029091810208950895FC01118210825D
:1031F000938382830895DB011D921C92DC01129659
:10320000ED91FC9113977183608313967C936E9379
:1032100012970895FC0180819181DB018D939C932D
:10322000A081B181109741F08D919C919183808311
:10323000892B11F4F383E2830895FC01808191814D
:10324000DB018D939C93892B11F4738362837183CB
:1032500060830895FC011182108293838283089514
:10326000CF93DF9300D0CDB7DEB71A821982F894DE
:10327000BE016F5F7F4F87E892E0CCDF89819A8142
:10328000009709F010D389819A81892B89F7BE01B3
:103290006F5F7F4F8BE892E0BDDF89819A81009755
:1032A00009F001D389819A81892B89F778940F904D
:1032B0000F90DF91CF910895CF93DF9300D0CDB7DA
:1032C000DEB71A821982F894BE016F5F7F4F83E8E0
:1032D00092E0A0DF89819A81009709F0E4D2898188
:1032E0009A81892B89F778940F900F90DF91CF9175
:1032F000089581E0089590E080E00895EF92FF92B4
:103300000F931F93CF93DF9300D0CDB7DEB71A8210
:1033100019828091820207EF1FEF8823A1F1F894B0
:10332000BE016F5F7F4F8BE892E074DF78948981F4
:103330009A81EE24E394F12C892B51F4F894BE0188
:103340006F5F7F4F87E892E065DF7894F12CE12C86
:1033500089819A810EEF1FEF0097A9F0FC0142814D
:10336000538164E070E06AD68C01892B61F0F89497
:1033700069817A81C701880F991F880F991F895722
:103380009D4F5BDF7894C8010F900F90DF91CF9134
:103390001F910F91FF90EF9008950F931F93CF937C
:1033A000DF9300D000D0CDB7DEB71C821B821A821B
:1033B00019828091820207EF1FEF8823C1F0AE01CE
:1033C0004D5F5F4F64E070E0CE010196AAD68C019C
:1033D000892B69F4E981FA818B819C8193838283B3
:1033E000F89469817A8183E892E005DF7894C801D6
:1033F0000F900F900F900F90DF91CF911F910F9131
:103400000895AFD7049608958F929F92AF92BF927E
:10341000CF92DF92EF92FF920F931F93CF93DF93A0
:1034200000D0CDB7DEB71A821982BC016F5F7F4F23
:103430006330710598F0AA24AA94BA2CC5010F90A4
:103440000F90DF91CF911F910F91FF90EF90DF9040
:10345000CF90BF90AF909F908F90089541155105E8
:1034600051F3480159018A016C01CBDF8815990598
:1034700011F7E114F104F9F28E0D9F1DA816B9069B
:10348000D0F2809182028823F1F0F894B501645063
:1034900071099701AE014F5F5F4FC8010496D6D600
:1034A0005C01892B71F489819A81F801938382836D
:1034B000C601880F991F880F991FB80189579D4F22
:1034C0009ADE7894BBCF87EFA82EBB24BA94B6CFF0
:1034D000AF92BF92CF92DF92EF92FF920F931F9322
:1034E000CF93DF9300D0CDB7DEB71A821982892B34
:1034F00009F047C06115710509F443C04115510534
:1035000009F43FC02115310509F43BC0011511052F
:10351000C1F1809182028823B9F179016A015B01CE
:10352000F894BE016F5F7F4F83E892E073DE78947A
:1035300089819A81009759F1DC0112966D917C91F5
:10354000A80104969CD68C01E981FA81D501ED93FE
:10355000FC93828193810496F6019183808351DFED
:10356000D7018D939C93C8010F900F90DF91CF915D
:103570001F910F91FF90EF90DF90CF90BF90AF9091
:1035800008950FEF1FEFEFCF07EF1FEFECCF0EEF18
:103590001FEFE9CFCF93DF93EC01672B71F4EAD6ED
:1035A0008C179D0760F0DDD62496C80FD91FDCD696
:1035B0008C0F9D1FDF91CF910895D9D6F1CF90E068
:1035C00080E0F8CF0F931F93CF93DF932091820277
:1035D00021112BC08B01EC0187E892E006DE8BE81D
:1035E00092E003DE83E892E000DE97D00097C1F41A
:1035F000C1D670E060E0CEDF4BE151E062E070E008
:103600007ED1009769F480911B0190911C01C4D672
:10361000B801CE01F9D4009719F421E02093820279
:10362000DF91CF911F910F91089584EF9FEFF8CF15
:103630009EC6A0C6CF93DF93A0D6EC01892B11F4D0
:103640000FDE3ADECE01DF91CF910895CF93DF9365
:1036500094D6EC01892B09F403DECE01DF91CF91E2
:10366000089580911B0190911C010895CF93DF93E1
:1036700080918202D0E0C0E08823D1F092D6EC01A4
:10368000892BB1F4EDDD18DE80911B0190911C01B6
:10369000E4D1E5D2EC01892B59F487E892E0DADD38
:1036A0008BE892E0D7DD83E892E0D4DD10928202CD
:1036B000CE01DF91CF910895EF92FF920F931F9368
:1036C000CF93DF93EC017A018B010F5F1F4F0E9DAB
:1036D000A0010F9D500D1E9D500D112470E060E063
:1036E0000E94F02890E080E0F0E0E0E02FEFE816A4
:1036F000F90639F4DF91CF911F910F91FF90EF9070
:1037000008951A8219822883309711F0D283C183D9
:103710000196FE01C00FD11FEACFCF92DF92EF9248
:10372000FF920F931F93CF93DF930BE613E00C7F71
:1037300043E050E06DE171E083E291E012D48DE16D
:10374000E82E81E0F82E93E2C92E91E0D92EC2ED49
:10375000D3E0D7014D915D917D01F60161917191A9
:103760006F01198308835D834C835B834A837F8366
:103770006E839B012F5F3F4F249FC001259F900DBB
:10378000349F900D1124998788870115110511F038
:10379000C80192DF88859985080F191F2A96F3E2E0
:1037A000EF16F1E0FF06A9F6E1E9F2E087EDDF01AF
:1037B0001D928A95E9F71092900210928F02109252
:1037C000F1031092F0031092F5031092F40310929B
:1037D000F3031092F2031092F7031092F603109283
:1037E000F9031092F8031092FB031092FA0310925F
:1037F000FF031092FE031092FD031092FC0310923F
:10380000010410920004109203041092020410921A
:10381000CF031092CE031092D1031092D00390E008
:1038200080E0DF91CF911F910F91FF90EF90DF909B
:10383000CF9008950097F1F0F894A3E2B1E0E2EDA3
:10384000F3E030E020E04D915D9148175907A8F072
:10385000428153814115510581F08AE0829FF00138
:10386000839FF00D1124EE52FC4F808191810097CF
:1038700059F4789490E080E008952F5F3F4F3A9696
:103880002330310501F7F5CFDC0111966D917C9164
:10389000718360834150510953834283FC0121931A
:1038A000CF0178940895009749F1DC018E9185301D
:1038B00041F4E091D003F091D1033097F9F0CD01BC
:1038C00009948530D8F4282F30E0F8948FEF8C934A
:1038D0008AE0829FF001839FF00D1124EE52FC4F8D
:1038E0008081918112969C938E931197B183A083CE
:1038F0008281938101969383828378940895CF92F5
:10390000DF92EF92FF920F931F93CF93DF939C016F
:1039100084E992E08C7F4115510509F49BC0211583
:10392000310509F497C06115710509F493C07A0156
:10393000AB01B9016D5F7F4F6C7F9B012F5F3F4FE4
:10394000249F8001259F100D349F100D1124F894A1
:103950002091F0033091F103232B59F42091F803C7
:103960003091F9032115310569F12017310708F06D
:1039700058C02091FA033091FB03232B91F420913E
:10398000F8033091F903820F931F209102043091C4
:1039900003042115310509F441C02017310708F04F
:1039A00056C07894CFEFDFEF86EF9FEFF701D1831A
:1039B000C083DF91CF911F910F91FF90EF90DF9027
:1039C000CF900895C3E0D0E0C0908F02D0909002D5
:1039D00024ED30E02C193D092017310710F32AE0BF
:1039E0002C9FF0012D9FF00D1124EE52FC4F91837E
:1039F000808355834483538342837783668311870F
:103A00000087009709F058DE0C0D1D1D10939002E1
:103A100000938F02789490E080E0C8CFC4E0D0E0BB
:103A2000D3CFC3E0D0E02AE02C9FF0012D9FF00D12
:103A30001124EE52FC4F918380835583448353833A
:103A4000428377836683009729F336DEE3CFC4E0B1
:103A5000D0E0E9CF8FEF9FEFACCF9C0103970297A7
:103A600008F069C0F89484E09AE0482F50E02417E9
:103A700035070CF44DC091E08AE0829FF001839FEE
:103A8000F00D1124EE52FC4F118210821582148227
:103A900013821282178216829923B1F18091F0036A
:103AA0009091F103892BA9F42091F8033091F90347
:103AB0002115310571F080918F0290919002821B47
:103AC000930B9093900280938F021092F9031092BF
:103AD000F8038091FA039091FB03892BA9F42091BC
:103AE0000204309103042115310571F080918F0299
:103AF00090919002821B930B9093900280938F027F
:103B00001092030410920204789490E080E00895EB
:103B1000949FF001959FF00D1124EE52FC4F4081CF
:103B20005181452B31F440855185452B11F481504D
:103B30009CCF90E0A1CF8FEF9FEF089541155105E5
:103B400049F1009739F16115710521F1F89420913F
:103B5000CE033091CF03232BB9F42091D0033091C1
:103B6000D103232B89F49093CF038093CE037093DA
:103B7000D1036093D003789425E030E090E080E0BA
:103B8000FA0131832083089578942FEF3FEF86EF79
:103B90009FEFF6CF8FEF9FEF0895059769F4F894A4
:103BA0001092CF031092CE031092D1031092D00343
:103BB000789490E080E008958FEF9FEF089561156D
:103BC000710519F4F0E0E0E011C08530910581F451
:103BD000E091CE03F091CF033097A1F3CB01019692
:103BE0000995009779F3FC0185E08193CF01089551
:103BF0009C01235031092230310520F72AE0289F0B
:103C0000D001299FB00D1124AE52BC4F2D913C9193
:103C10001197232BB9F216962D913C9117972617E1
:103C2000370780F2F89412962D913C911397211545
:103C3000310529F0ED91FC911197309711F47894AA
:103C4000C1CF4181528111965C934E93215031092D
:103C500013963C932E93129781937894C7CFE8E6FE
:103C6000F3E086E6DF011D928A95E9F7E1E9F2E0EB
:103C700087EDDF011D928A95E9F71092900210926C
:103C80008F02E2EDF3E082E3DF011D928A95E9F70E
:103C9000EEECF3E084E0DF011D928A95E9F790E015
:103CA00080E00895CF93DF93C0912901D0912A013C
:103CB000CF3FDC0759F441D490932A018093290126
:103CC00097FF09C0D0932A01C093290184EF9FEF89
:103CD000DF91CF91089590E080E0FACF8230910596
:103CE00028F48093040490E080E008958FEF9FEF24
:103CF00008954F925F926F927F92AF92BF92CF9250
:103D0000DF92EF92FF920F931F93CF93DF9300D038
:103D1000CDB7DEB71A821982009709F478C0611511
:103D2000710509F474C02091290130912A0107EF2F
:103D30001FEF2F3F3F4F09F444C06B015C01412C42
:103D4000512C3201F12CE12C10E000E09E012F5F9C
:103D50003F4FA6014E195F09B5016E0D7F1D809181
:103D6000290190912A0148D4892B09F04AC0898100
:103D70009A81009741F4E114F10429F4209104049C
:103D8000222309F441C0E80EF91EEC14FD04C8F426
:103D900080E8481684E858068EE16806710418F534
:103DA00060E070E0CB0180D62AE0420E511C611C1D
:103DB000711C0A3F4FEF140721F0043F8FEF1807E3
:103DC000A1F4C8010F900F90DF91CF911F910F9137
:103DD000FF90EF90DF90CF90BF90AF907F906F906B
:103DE0005F904F90089501EF1FEF81E090E0013F59
:103DF0002FEF120711F090E080E0892B09F4A6CF95
:103E0000E0CF04EF1FEFDDCF0AEF1FEFDACF0FEFA8
:103E10001FEFD7CF4F925F926F927F92AF92BF9278
:103E2000CF92DF92EF92FF920F931F93CF93DF9386
:103E300000D0CDB7DEB71A821982009709F478C096
:103E40006115710509F474C02091290130912A018E
:103E500007EF1FEF2F3F3F4F09F444C06B015C0198
:103E6000412C512C3201F12CE12C10E000E09E019C
:103E70002F5F3F4FA6014E195F09B5016E0D7F1DE3
:103E80008091290190912A016DD3892B09F04AC0B4
:103E900089819A81009741F4E114F10429F4209179
:103EA0000404222309F441C0E80EF91EEC14FD04B9
:103EB000C8F480E4481682E458068FE0680671046E
:103EC00018F560E070E0CB01EFD52AE0420E511CFE
:103ED000611C711C0E3F4FEF140721F0043F8FEF60
:103EE0001807A1F4C8010F900F90DF91CF911F9197
:103EF0000F91FF90EF90DF90CF90BF90AF907F90A9
:103F00006F905F904F90089502EF1FEF81E090E077
:103F1000023F2FEF120711F090E080E0892B09F4A7
:103F2000A6CFE0CF04EF1FEFDDCF0EEF1FEFDACF0C
:103F30000FEF1FEFD7CF8091290190912A018F3F7A
:103F4000980749F0F2D2892B49F48FEF9FEF9093B5
:103F50002A018093290190E080E0089584EF9FEF8B
:103F60000895CF92DF92EF92FF920F931F93CF931A
:103F7000DF9321E04115510509F020E0415051093E
:103F800021112CC0DC01FB01D12CC12C21E022C06D
:103F90003FEFC31AD30A7D010D911D91E701EA801D
:103FA000FB80E016F106A8F420813181E280F380E5
:103FB000F182E08233832283ED90FC9011979D0182
:103FC00022503109E901F982E88211961C930E937F
:103FD00020E03296C416D506D8F2D2CFDF91CF9129
:103FE0001F910F91FF90EF90DF90CF900895FC010B
:103FF000680F791F90E080E0E617F70709F408954D
:104000002191820F911DF8CF20910504211113C039
:1040100049DE009791F410920B0410920A0410925A
:10402000090410920804109207041092060421E07B
:1040300020930504089584EF9FEF0895AF92BF92F7
:10404000CF92DF92EF92FF920F931F93CF93DF9364
:10405000009709F460C04630510508F45CC0209117
:104060000504C7EFDFEF222309F449C08C01060FD6
:10407000171FF801C080D180C114D10409F44EC0CB
:1040800096012A5F3F4F4217530708F447C07C014F
:1040900080910A0490910B0493838283B6016C5F34
:1040A0007F4F5801A60EB71EC801A1DFF50191830D
:1040B000808364E070E0C8011CDEEC01892BF9F418
:1040C00081E090E00BDEB601C801049612DEEC013F
:1040D000892B91F462E070E0C5010BDEEC01892BC5
:1040E00059F4C701E0DB80910A0490910B0401961A
:1040F00090930B0480930A0490E080E0EFDDCE0102
:10410000DF91CF911F910F91FF90EF90DF90CF90B3
:10411000BF90AF900895CFEFDFEFF1CFC9EFDFEFA2
:10412000EECF6F927F928F929F92AF92BF92CF927B
:10413000DF92EF92FF920F931F93CF93DF9300D004
:1041400000D0CDB7DEB7009709F47AC0411551050C
:1041500009F476C02091050407EF1FEF222309F42C
:104160004DC03A017B015C0164E070E0CE01019634
:1041700051DE8C01892B09F041C009811A8101159A
:10418000110509F45AC0480186E0880E911CB70158
:10419000680D791D80912B0190912C0110DD6C012F
:1041A000009709F450C0A70170E060E00E94F02879
:1041B00089819A81AB81BC81EC0CFD1CF701819354
:1041C0009193A193B1937F0181E090E087DDB801E5
:1041D000C70120DE892B31F562E070E0C701800F56
:1041E000911F18DE8C01892BE9F490E080E076DDE8
:1041F000F501D182C082F30191828082C8010F90C3
:104200000F900F900F90DF91CF911F910F91FF9022
:10421000EF90DF90CF90BF90AF909F908F907F9066
:104220006F90089590E080E059DDF50111821082D1
:10423000F30111821082C60136DB09EF1FEFDECFDA
:104240000FEF1FEFDBCF06EF1FEFD8CF0097A1F0E6
:104250004115510589F02115310571F0F9013696A6
:104260006E177F0748F0DC012D933C93DA01ED9344
:10427000FC9390E080E008958FEF9FEF0895AF9258
:10428000BF92CF92DF92EF92FF920F931F93CF9343
:10429000DF93009709F45FC04115510509F45BC035
:1042A0006530710508F457C020910504C7EFDFEFB2
:1042B000222391F1DC01CD90DC9011971296ED91C3
:1042C000FC9196012A5F3F4FC9EFDFEF26173707B2
:1042D00019F5C0910604D0910704209749F521E013
:1042E00030E030930704209306047A018C01F093A8
:1042F0000904E09308045601B4E0AB0EB11CB5010B
:1043000076DE0A0D1B1DF80120813181821793078B
:1043100029F5D701CD92DC92CE01DF91CF911F918B
:104320000F91FF90EF90DF90CF90BF90AF900895E6
:1043300020910804309109042F5F3F4FCCEFDFEF4D
:10434000E217F30790F2CBEFDFEF2E173F0768F28B
:10435000D0E0C0E0CACFCFEFDFEFDECFC3EFDFEFBB
:10436000DBCF84E090E0089582E090E008958CEF48
:104370009FEF089580E290E0089510920B04109250
:104380000A04109209041092080410920704109273
:10439000060490E080E0089590932C0180932B0117
:1043A000089580910504882391F0C5DD009789F474
:1043B00010920B0410920A0410920904109208043F
:1043C000109207041092060410920504089590E0DC
:1043D00080E00895009749F06115710531F0FC0106
:1043E00011821082FB01118210820895F3CF08958B
:1043F00026E030E040E855E260E070E090E080E0E8
:1044000000C010920D0410920C0489309105E0F464
:10441000845F9D4DFC01BCC615221E222522282248
:104420002B222E22312234223A2281E090E09093F6
:104430000D0480930C048BE194E053C582E090E07E
:1044400090930D0480930C04089584E090E0F8CFDD
:1044500088E090E0F5CF80E190E0F2CF80E290E05C
:10446000EFCF80E490E0ECCF80E890E090930D04F3
:1044700080930C0480910C0490910D049160E0CF26
:104480001F920F920FB60F9211242F933F934F93C9
:104490005F936F937F938F939F93AF93BF93EF93AC
:1044A000FF9386E997EE9093850080938400B7D0C0
:1044B000FF91EF91BF91AF919F918F917F916F91FC
:1044C0005F914F913F912F910F900FBE0F901F90D2
:1044D000189586E997EE9093850080938400AFE667
:1044E000B0E08C918E7F8C93E0E8F0E080818C7F4F
:1044F0008083E1E8F0E08081877E80838081846032
:10450000808380818C7F80838C9181608C930895DF
:10451000EFE6F0E0808190819E7F90838170089526
:1045200081E0089510920E04089568EE73E080E033
:1045300090E0BAD290E080E0089526E030E040E0DC
:1045400052EC61E070E090E080E05BDF8BE194E0B2
:10455000FED3892B21F08BE194E013D4F7CF90E0C8
:1045600080E00895CF92DF92EF92FF920F931F9316
:10457000CF93DF936B017A01E901198218828BE1F5
:1045800094E0E5D3892B69F18601CC24C39482E0C1
:10459000D82E80910E04811110C08BE194E0F1D3EC
:1045A0000297B9F7C0920E04F801D1928F01888169
:1045B0009981019699838883ECCF888199818E15A2
:1045C0009F0578F48BE194E0DCD38F3F9807A9F343
:1045D000F80181938F01888199810196998388835D
:1045E000ECCF90E080E0DF91CF911F910F91FF9091
:1045F000EF90DF90CF9008950F931F93CF93DF93A9
:10460000EA0189018BE194E050D5F801D183C083A0
:1046100090E080E0DF91CF911F910F910895CF92AC
:10462000DF92EF92FF9280910F0491E0980F9093A8
:104630000F04882369F021E030E0309311042093C7
:10464000100480930F04FF90EF90DF90CF900895B7
:104650007894E0912E01F0912F01C688D788E08CE4
:10466000F18C0E94E202B701A60190E080E00E9476
:104670005502F89480910F048150E3CF0F931F935C
:10468000CF93DF931092DC041092DB0443D2B0DEB0
:10469000C0912E01D0912F011982188268E572E035
:1046A00080E090E00E94D70270E060E090E080E05F
:1046B0000E945901009709F03AC00E944E03F894F5
:1046C00078948A819B81BC01685F7F4F0E945C0166
:1046D000892B59F46FEF7FEFCB010E94EC010E9410
:1046E000D102882311F081E08E8FF894F2DE0E94CF
:1046F000D402882311F080E008C00E94D102811109
:10470000FACF81E09E8D9111F6CF8093DB047894EF
:104710000E94120A8C0178948091DB0481110CC0F4
:104720000E94DC030E94B702F89490E080E0DF91E1
:10473000CF911F910F9108950E94B5020E94D4025B
:104740008823E1F081E08093DC049091DC0481E037
:10475000911180E08093DB048091DC048111D8DE2C
:104760000130110529F40E94120A892B09F4DADEBE
:104770000E94120A8C01D4DE3ADECECF0E94D10212
:104780008111E0CF81E09E8D9111DDCF80E0DBCF04
:1047900040D008F481E00895E89409C097FB3EF406
:1047A00090958095709561957F4F8F4F9F4F99237E
:1047B000A9F0F92F96E9BB279395F69587957795FC
:1047C0006795B795F111F8CFFAF4BB0F11F460FFBC
:1047D0001BC06F5F7F4F8F4F9F4F16C0882311F014
:1047E00096E911C0772321F09EE8872F762F05C028
:1047F000662371F096E8862F70E060E02AF09A95C3
:10480000660F771F881FDAF7880F9695879597F9B7
:104810000895990F0008550FAA0BE0E8FEEF161651
:104820001706E807F907C0F012161306E407F507A4
:1048300098F0621B730B840B950B39F40A2661F018
:10484000232B242B252B21F408950A2609F4A140BB
:10485000A6958FEF811D811D0895DBDF08F48FEF92
:1048600008950BD078C069D028F06ED018F0952349
:1048700009F05AC05FC01124A2C07ED0A0F3959F5A
:10488000D1F3950F50E0551F629FF001729FBB2737
:10489000F00DB11D639FAA27F00DB11DAA1F649FE3
:1048A0006627B00DA11D661F829F2227B00DA11D96
:1048B000621F739FB00DA11D621F839FA00D611D1C
:1048C000221F749F3327A00D611D231F849F600D3D
:1048D000211D822F762F6A2F11249F5750408AF076
:1048E000E1F088234AF0EE0FFF1FBB1F661F771F02
:1048F000881F91505040A9F79E3F510570F014C099
:104900005EC05F3FECF3983EDCF386957795679544
:10491000B795F795E7959F5FC1F7FE2B880F911D1F
:104920009695879597F9089597F99F6780E870E0C5
:1049300060E008959FEF80EC089500240A94161615
:10494000170618060906089500240A94121613067D
:10495000140605060895092E0394000C11F488230B
:1049600052F0BB0F40F4BF2B11F460FF04C06F5F27
:104970007F4F8F4F9F4F089557FD9058440F551FFD
:1049800059F05F3F71F04795880F97FB991F61F0D1
:104990009F3F79F087950895121613061406551F48
:1049A000F2CF4695F1DF08C0161617061806991FB4
:1049B000F1CF86957105610508940895E894BB27A9
:1049C00066277727CB0197F908951F920F920FB6AC
:1049D0000F9211242F933F938F939F93AF93BF9385
:1049E0008091130490911404A0911504B0911604C1
:1049F0003091120423E0230F2D3758F50196A11DA5
:104A0000B11D209312048093130490931404A09377
:104A10001504B09316048091170490911804A09186
:104A20001904B0911A040196A11DB11D80931704B9
:104A300090931804A0931904B0931A04BF91AF91F6
:104A40009F918F913F912F910F900FBE0F901F90CC
:104A5000189526E8230F0296A11DB11DD2CF3FB7AE
:104A6000F8948091170490911804A0911904B091C2
:104A70001A0426B5A89B05C02F3F19F00196A11D69
:104A8000B11D3FBFBA2FA92F982F8827BC01CD0198
:104A9000620F711D811D911D42E0660F771F881FF7
:104AA000991F4A95D1F708958F929F92AF92BF9226
:104AB000CF92DF92EF92FF926B017C01D0DF4B012E
:104AC0005C01C114D104E104F104D9F01BD3C7DFA8
:104AD000681979098A099B09683E73408105910527
:104AE00080F321E0C21AD108E108F10888EE880EAF
:104AF00083E0981EA11CB11CC114D104E104F1048F
:104B000031F7FF90EF90DF90CF90BF90AF909F90E4
:104B10008F900895789484B5826084BD84B5816057
:104B200084BD85B5826085BD85B5816085BDEEE6B5
:104B3000F0E0808181608083E1E8F0E01082808194
:104B400082608083808181608083E0E8F0E0808102
:104B500081608083E1EBF0E0808184608083E0EB22
:104B6000F0E0808181608083EAE7F0E0808184600A
:104B70008083808182608083808181608083808166
:104B8000806880831092C1000895833081F028F4FA
:104B9000813099F08230A9F008958730A9F08830EB
:104BA000C9F08430B1F4809180008F7D03C0809182
:104BB00080008F7780938000089584B58F7784BDBF
:104BC000089584B58F7DFBCF8091B0008F7780935F
:104BD000B00008958091B0008F7DF9CFCF93DF931F
:104BE00090E0FC01E458FF4F249180579F4FFC0157
:104BF00084918823C9F090E0880F991FFC01E85444
:104C0000FF4FA591B491FC01E255FF4FC591D4919E
:104C100061110DC09FB7F8948C91209582238C93DD
:104C20008881282328839FBFDF91CF910895623028
:104C300051F49FB7F8943C91822F809583238C93F5
:104C4000E8812E2BEFCF8FB7F894EC912E2B2C937D
:104C50008FBFEACF1F93CF93DF93282F30E0F90166
:104C6000E859FF4F8491F901E458FF4FD491F901BD
:104C7000E057FF4FC491CC23A1F0162F811185DF9F
:104C8000EC2FF0E0EE0FFF1FE255FF4FA591B4911E
:104C90008FB7F894EC91111108C0D095DE23DC9306
:104CA0008FBFDF91CF911F910895DE2BF8CFCF9367
:104CB000DF93282F30E0F901E859FF4F8491F90183
:104CC000E458FF4FD491F901E057FF4FC491CC2332
:104CD00099F081115ADFEC2FF0E0EE0FFF1FEC5539
:104CE000FF4FA591B491EC91ED2381E090E009F4A0
:104CF00080E0DF91CF91089580E090E0FACF0F93AC
:104D00001F9390E0FC01E458FF4F7491FC01E057C1
:104D1000FF4FE4916111672FF0E0EE0FFF1FEC559C
:104D2000FF4F8591949189019A013F70462F672F1B
:104D30000E948B00611571058105910529F06F5F57
:104D40007F4F8F4F9F4F9F701F910F910895FC01D0
:104D5000918D228D892F90E0805C9F4F821B91095D
:104D60008F7399270895FC01918D828D981731F0EA
:104D7000828DE80FF11D858D90E008958FEF9FEFF4
:104D80000895FC01918D828D981761F0A28DAE0F70
:104D9000BF2FB11D5D968C91928D9F5F9F73928FF7
:104DA00090E008958FEF9FEF0895FC01538D448D9F
:104DB000252F30E0842F90E0821B930B541710F0C6
:104DC000CF96089501970895FC01A48DA80FB92FDF
:104DD000B11DA35ABF4F2C91848D90E001968F7323
:104DE0009927848FA689B7892C93A089B1898C9142
:104DF000837080648C93938D848D981306C0028891
:104E0000F389E02D80818F7D80830895CF93DF9398
:104E1000EC01888D8823B1F0AA89BB89E889F989DA
:104E20008C9185FD03C0808186FD0CC00FB607FC08
:104E3000F7CF8C9185FFF2CF808185FFEDCFCE013A
:104E4000C3DFEACFDF91CF910895EF92FF920F93E6
:104E50001F93CF93DF93EC0181E0888F9B8D8C8D26
:104E600098131AC0E889F989808185FF15C09FB71A
:104E7000F894EE89FF896083E889F98980818370DD
:104E8000806480839FBF81E090E0DF91CF911F918C
:104E90000F91FF90EF900895F62E0B8D10E00F5FAD
:104EA0001F4F0F731127E02E8C8D8E110BC00FB684
:104EB00007FCFACFE889F989808185FFF5CFCE011B
:104EC00083DFF2CFEB8DEC0FFD2FF11DE35AFF4F87
:104ED000F0829FB7F8940B8FEA89FB89808180620A
:104EE000D0CFCF92DF92EF92FF921F93CF93DF93B9
:104EF000EC016A017B01122FE889F98982E0808345
:104F0000C11481EED806E104F10499F060E079E083
:104F10008DE390E0A701960119D121503109410993
:104F200051095695479537952795211580E1380702
:104F300090F0E889F989108260E874E88EE190E0E9
:104F4000A701960103D12150310941095109569514
:104F5000479537952795EC85FD853083EE85FF8550
:104F60002083188EEC89FD891083EA89FB89808172
:104F700080618083EA89FB89808188608083EA89F7
:104F8000FB89808180688083EA89FB8980818F7DAD
:104F90008083DF91CF911F91FF90EF90DF90CF90B2
:104FA00008951F920F920FB60F9211242F938F9393
:104FB0009F93EF93FF93E0912B04F0912C04808159
:104FC000E0913104F091320482FD1BC09081809108
:104FD00034048F5F8F7320913504821741F0E09184
:104FE0003404F0E0E55EFB4F958F80933404FF912D
:104FF000EF919F918F912F910F900FBE0F901F9067
:1050000018958081F4CF1F920F920FB60F92112442
:105010002F933F934F935F936F937F938F939F93C0
:10502000AF93BF93EF93FF938BE194E0CDDEFF91BD
:10503000EF91BF91AF919F918F917F916F915F9110
:105040004F913F912F910F900FBE0F901F90189589
:10505000EBE1F4E01382128288EE93E0A0E0B0E08E
:1050600084839583A683B78388EB91E091838083C3
:1050700085EC90E09587848784EC90E0978786871D
:1050800080EC90E0918B808B81EC90E0938B828B15
:1050900082EC90E0958B848B86EC90E0978B868BEE
:1050A000118E128E138E148E0895AF92BF92CF92EE
:1050B000DF92EF92FF920F931F93CF93DF936C01D8
:1050C0007B018B01040F151FEB015E01AE18BF08B9
:1050D000C017D10759F06991D601ED91FC9101906B
:1050E000F081E02DC6010995892B79F7C501DF9183
:1050F000CF911F910F91FF90EF90DF90CF90BF90D5
:10510000AF9008950895DB018F939F9347D0BF918F
:10511000AF91A29F800D911DA39F900DB29F900D06
:1051200011240895AA1BBB1B51E107C0AA1FBB1F76
:10513000A617B70710F0A61BB70B881F991F5A9523
:10514000A9F780959095BC01CD010895A1E21A2E92
:10515000AA1BBB1BFD010DC0AA1FBB1FEE1FFF1F1B
:10516000A217B307E407F50720F0A21BB30BE40B6B
:10517000F50B661F771F881F991F1A9469F76095B2
:105180007095809590959B01AC01BD01CF0108956C
:10519000EE0FFF1F0590F491E02D099409D0A59F13
:1051A000900DB49F900DA49F800D911D1124089522
:1051B000A29FB001B39FC001A39F700D811D112458
:1051C000911DB29F700D811D1124911D0895FB0149
:1051D000DC0102C001900D9241505040D8F7089573
:1051E000DC0101C06D9341505040E0F70895F89400
:0251F000FFCFEF
:1051F2009A99993EFEFFFFFF01E8030000FFFF00BE
:10520200000000FFFFFFFFFFFFFFFFFFFF010001A4
:10521200000100200038000800FFFFFFFF01E0014D
:10522200FF00690C950CFE004F0CCD09FD00E10B4F
:105232003B0CFC00270CCD09F600180DCD09F5003A
:10524200EE0B570DF400E10C6E0DDE009C113514CF
:10525200DD000B13CD09DA003E0F460FD9005014C2
:10526200560FE200260ECD09E100610ECD09E000E5
:10527200D60ECD09D6003418CD09D500EB10CD09D4
:10528200D4007710CD09D300E80FCD09DC00650FFB
:10529200CD09C0006D0FCD09F0009D18CD09ED00BC
:1052A2005A18CD090000000025275528D5260627C3
:0652B200A726C126B32669
:00000001FF
